{
  "address": "0x27Cc5462CF301E154cF89b9B01AA27BE92945776",
  "abi": [
    {
      "inputs": [
        {
          "internalType": "string",
          "name": "imageURI",
          "type": "string"
        }
      ],
      "stateMutability": "nonpayable",
      "type": "constructor"
    },
    {
      "inputs": [],
      "name": "ERC721Metadata__URI_QueryFor_NonExistentToken",
      "type": "error"
    },
    {
      "anonymous": false,
      "inputs": [
        {
          "indexed": true,
          "internalType": "address",
          "name": "owner",
          "type": "address"
        },
        {
          "indexed": true,
          "internalType": "address",
          "name": "approved",
          "type": "address"
        },
        {
          "indexed": true,
          "internalType": "uint256",
          "name": "tokenId",
          "type": "uint256"
        }
      ],
      "name": "Approval",
      "type": "event"
    },
    {
      "anonymous": false,
      "inputs": [
        {
          "indexed": true,
          "internalType": "address",
          "name": "owner",
          "type": "address"
        },
        {
          "indexed": true,
          "internalType": "address",
          "name": "operator",
          "type": "address"
        },
        {
          "indexed": false,
          "internalType": "bool",
          "name": "approved",
          "type": "bool"
        }
      ],
      "name": "ApprovalForAll",
      "type": "event"
    },
    {
      "anonymous": false,
      "inputs": [
        {
          "indexed": true,
          "internalType": "address",
          "name": "previousOwner",
          "type": "address"
        },
        {
          "indexed": true,
          "internalType": "address",
          "name": "newOwner",
          "type": "address"
        }
      ],
      "name": "OwnershipTransferred",
      "type": "event"
    },
    {
      "anonymous": false,
      "inputs": [
        {
          "indexed": true,
          "internalType": "address",
          "name": "from",
          "type": "address"
        },
        {
          "indexed": true,
          "internalType": "address",
          "name": "to",
          "type": "address"
        },
        {
          "indexed": true,
          "internalType": "uint256",
          "name": "tokenId",
          "type": "uint256"
        }
      ],
      "name": "Transfer",
      "type": "event"
    },
    {
      "inputs": [
        {
          "internalType": "address",
          "name": "to",
          "type": "address"
        },
        {
          "internalType": "uint256",
          "name": "tokenId",
          "type": "uint256"
        }
      ],
      "name": "approve",
      "outputs": [],
      "stateMutability": "nonpayable",
      "type": "function"
    },
    {
      "inputs": [
        {
          "internalType": "address",
          "name": "owner",
          "type": "address"
        }
      ],
      "name": "balanceOf",
      "outputs": [
        {
          "internalType": "uint256",
          "name": "",
          "type": "uint256"
        }
      ],
      "stateMutability": "view",
      "type": "function"
    },
    {
      "inputs": [
        {
          "internalType": "uint256",
          "name": "tokenId",
          "type": "uint256"
        }
      ],
      "name": "getApproved",
      "outputs": [
        {
          "internalType": "address",
          "name": "",
          "type": "address"
        }
      ],
      "stateMutability": "view",
      "type": "function"
    },
    {
      "inputs": [],
      "name": "getSVG",
      "outputs": [
        {
          "internalType": "string",
          "name": "",
          "type": "string"
        }
      ],
      "stateMutability": "view",
      "type": "function"
    },
    {
      "inputs": [],
      "name": "getTokenCounter",
      "outputs": [
        {
          "internalType": "uint256",
          "name": "",
          "type": "uint256"
        }
      ],
      "stateMutability": "view",
      "type": "function"
    },
    {
      "inputs": [
        {
          "internalType": "address",
          "name": "owner",
          "type": "address"
        },
        {
          "internalType": "address",
          "name": "operator",
          "type": "address"
        }
      ],
      "name": "isApprovedForAll",
      "outputs": [
        {
          "internalType": "bool",
          "name": "",
          "type": "bool"
        }
      ],
      "stateMutability": "view",
      "type": "function"
    },
    {
      "inputs": [],
      "name": "mintNft",
      "outputs": [],
      "stateMutability": "nonpayable",
      "type": "function"
    },
    {
      "inputs": [],
      "name": "name",
      "outputs": [
        {
          "internalType": "string",
          "name": "",
          "type": "string"
        }
      ],
      "stateMutability": "view",
      "type": "function"
    },
    {
      "inputs": [],
      "name": "owner",
      "outputs": [
        {
          "internalType": "address",
          "name": "",
          "type": "address"
        }
      ],
      "stateMutability": "view",
      "type": "function"
    },
    {
      "inputs": [
        {
          "internalType": "uint256",
          "name": "tokenId",
          "type": "uint256"
        }
      ],
      "name": "ownerOf",
      "outputs": [
        {
          "internalType": "address",
          "name": "",
          "type": "address"
        }
      ],
      "stateMutability": "view",
      "type": "function"
    },
    {
      "inputs": [],
      "name": "renounceOwnership",
      "outputs": [],
      "stateMutability": "nonpayable",
      "type": "function"
    },
    {
      "inputs": [
        {
          "internalType": "address",
          "name": "from",
          "type": "address"
        },
        {
          "internalType": "address",
          "name": "to",
          "type": "address"
        },
        {
          "internalType": "uint256",
          "name": "tokenId",
          "type": "uint256"
        }
      ],
      "name": "safeTransferFrom",
      "outputs": [],
      "stateMutability": "nonpayable",
      "type": "function"
    },
    {
      "inputs": [
        {
          "internalType": "address",
          "name": "from",
          "type": "address"
        },
        {
          "internalType": "address",
          "name": "to",
          "type": "address"
        },
        {
          "internalType": "uint256",
          "name": "tokenId",
          "type": "uint256"
        },
        {
          "internalType": "bytes",
          "name": "data",
          "type": "bytes"
        }
      ],
      "name": "safeTransferFrom",
      "outputs": [],
      "stateMutability": "nonpayable",
      "type": "function"
    },
    {
      "inputs": [
        {
          "internalType": "address",
          "name": "operator",
          "type": "address"
        },
        {
          "internalType": "bool",
          "name": "approved",
          "type": "bool"
        }
      ],
      "name": "setApprovalForAll",
      "outputs": [],
      "stateMutability": "nonpayable",
      "type": "function"
    },
    {
      "inputs": [
        {
          "internalType": "bytes4",
          "name": "interfaceId",
          "type": "bytes4"
        }
      ],
      "name": "supportsInterface",
      "outputs": [
        {
          "internalType": "bool",
          "name": "",
          "type": "bool"
        }
      ],
      "stateMutability": "view",
      "type": "function"
    },
    {
      "inputs": [
        {
          "internalType": "string",
          "name": "svg",
          "type": "string"
        }
      ],
      "name": "svgToImageURI",
      "outputs": [
        {
          "internalType": "string",
          "name": "",
          "type": "string"
        }
      ],
      "stateMutability": "pure",
      "type": "function"
    },
    {
      "inputs": [],
      "name": "symbol",
      "outputs": [
        {
          "internalType": "string",
          "name": "",
          "type": "string"
        }
      ],
      "stateMutability": "view",
      "type": "function"
    },
    {
      "inputs": [
        {
          "internalType": "uint256",
          "name": "tokenId",
          "type": "uint256"
        }
      ],
      "name": "tokenURI",
      "outputs": [
        {
          "internalType": "string",
          "name": "",
          "type": "string"
        }
      ],
      "stateMutability": "view",
      "type": "function"
    },
    {
      "inputs": [
        {
          "internalType": "address",
          "name": "from",
          "type": "address"
        },
        {
          "internalType": "address",
          "name": "to",
          "type": "address"
        },
        {
          "internalType": "uint256",
          "name": "tokenId",
          "type": "uint256"
        }
      ],
      "name": "transferFrom",
      "outputs": [],
      "stateMutability": "nonpayable",
      "type": "function"
    },
    {
      "inputs": [
        {
          "internalType": "address",
          "name": "newOwner",
          "type": "address"
        }
      ],
      "name": "transferOwnership",
      "outputs": [],
      "stateMutability": "nonpayable",
      "type": "function"
    }
  ],
  "transactionHash": "0x4545d663af5910c3b509cd6dc2a7bb512c0d9d4092e04d7474413094bf649582",
  "args": [
    "<?xml version=\"1.0\"?>\r\n<svg\r\n    xmlns:rdf=\"http://www.w3.org/1999/02/22-rdf-syntax-ns#\"\r\n    xmlns=\"http://www.w3.org/2000/svg\"\r\n    xmlns:cc=\"http://creativecommons.org/ns#\"\r\n    xmlns:dc=\"http://purl.org/dc/elements/1.1/\"\r\n    xmlns:svg=\"http://www.w3.org/2000/svg\"\r\n    xmlns:inkscape=\"http://www.inkscape.org/namespaces/inkscape\"\r\n    xmlns:sodipodi=\"http://sodipodi.sourceforge.net/DTD/sodipodi-0.dtd\"\r\n    xmlns:ns1=\"http://sozi.baierouge.fr\"\r\n    xmlns:xlink=\"http://www.w3.org/1999/xlink\"\r\n    id=\"svg3175\"\r\n    viewBox=\"0 0 116 135\"\r\n    version=\"1.1\"\r\n  >\r\n  <g\r\n      id=\"layer1\"\r\n      transform=\"translate(-371.11 -247.6)\"\r\n    >\r\n    <g\r\n        id=\"g4079\"\r\n        transform=\"translate(-95 7.1429)\"\r\n      >\r\n      <path\r\n          id=\"path4087\"\r\n          d=\"m466.11 307.96c0-67.5 0-67.5 58-67.5s58 0 58 67.5 0 67.5-58 67.5-58 0-58-67.5z\"\r\n          fill=\"#f1f0f0\"\r\n      />\r\n      <path\r\n          id=\"path4085\"\r\n          d=\"m471.51 370.8c-0.37777-2.0137-0.32956-8.4262 0.10713-14.25 0.873-11.643 0.89732-13.633 0.39823-32.589-0.29298-11.128-0.009-14.251 1.9704-21.686 2.3127-8.6855 2.3127-8.6855-2.7834-17.344-6.8095-11.57-6.9033-11.393 7.4039-13.916 8.1271-1.433 7.8968-0.23493 2.8666-14.912-4.162-12.144-3.9352-14.253 1.5054-13.997 5.0085 0.23572 11.852 4.962 16.435 11.35 5.9709 8.3231 8.2654 9.5049 13.834 7.1254 7.2694-3.1062 23.645-4.5572 28.976-2.5675 9.8411 3.673 11.445 3.2042 15.362-4.4911 3.5178-6.9097 14.216-14.768 16.709-12.274 1.4496 1.4496-0.90507 19.782-3.2101 24.993-2.561 5.7895-2.5081 6.216 0.77165 6.2292 8.0853 0.0324 10.387 1.0678 9.7326 4.3778-1.8179 9.1912-10.716 21.611-15.482 21.611-6.8056 0-3.9197 12.989 5.4387 24.478 6.8599 8.4221 6.8937 13.352 0.17831 26.007-3.4125 6.4305-3.6174 7.3461-3.6174 16.166 0 9.3493 0 9.3493-47.955 9.3493s-47.955 0-48.642-3.6612z\"\r\n          fill=\"#e4c404\"\r\n      />\r\n      <path\r\n          id=\"path4083\"\r\n          d=\"m471.51 370.8c-0.37777-2.0137-0.32956-8.4262 0.10713-14.25 0.873-11.643 0.89732-13.633 0.39823-32.589-0.29298-11.128-0.009-14.251 1.9704-21.686 2.3127-8.6855 2.3127-8.6855-2.7834-17.344-6.8095-11.57-6.9033-11.393 7.4039-13.916 8.1271-1.433 7.8968-0.23493 2.8666-14.912-4.162-12.144-3.9352-14.253 1.5054-13.997 5.0085 0.23572 11.852 4.962 16.435 11.35 5.9709 8.3231 8.2654 9.5049 13.834 7.1254 7.2694-3.1062 23.645-4.5572 28.976-2.5675 9.8411 3.673 11.445 3.2042 15.362-4.4911 3.5178-6.9097 14.216-14.768 16.709-12.274 1.4496 1.4496-0.90507 19.782-3.2101 24.993-2.561 5.7895-2.5081 6.216 0.77165 6.2292 8.0853 0.0324 10.387 1.0678 9.7326 4.3778-1.8179 9.1912-10.716 21.611-15.482 21.611-6.8056 0-3.9197 12.989 5.4387 24.478 6.8599 8.4221 6.8937 13.352 0.17831 26.007-3.4125 6.4305-3.6174 7.3461-3.6174 16.166 0 9.3493 0 9.3493-47.955 9.3493s-47.955 0-48.642-3.6612zm36.767-93.994c2.8022-2.536 2.4034-7.8519-0.75395-10.048-5.7886-4.027-9.5115-7.692-11.615-11.434-2.3052-4.1015-10.616-10.456-11.931-9.1236-0.41341 0.41876 0.0926 3.7974 1.1244 7.508 4.4043 15.839 17.155 28.547 23.176 23.098zm58.952-10.587c1.851-3.6284 4.4257-19.542 3.3378-20.63-1.1604-1.1604-6.2411 4.0527-9.7209 9.9743-5.3067 9.0304-5.2886 8.9658-3.0136 10.776 1.1215 0.89212 2.5731 2.6636 3.2258 3.9366 1.4706 2.8682 3.2272 1.7134 6.1709-4.0569z\"\r\n          fill=\"#d03f21\"\r\n      />\r\n      <path\r\n          id=\"path4081\"\r\n          d=\"m471.62 367.21c-0.36502-3.9875-0.20519-10.85 0.35518-15.25s0.78852-15.425 0.50701-24.5c-0.47169-15.205-0.32505-17.177 1.869-25.122 2.4187-8.7596 0.37596-15.933-6.8218-23.956-3.0661-3.4177 1.582-6.0235 13.423-7.5254 6.2101-0.78769 6.1517 0.45411 0.71518-15.191-4.9333-14.197-3.8068-16.436 5.9451-11.818 5.0086 2.3719 8.6868 5.7907 13.912 12.931 3.6942 5.0484 6.7237 6.4191 10.338 4.6776 1.5125-0.72874 5-1.685 7.75-2.125 18.515-2.9622 17.523-2.9834 27.296 0.58294 5.6451 2.06 7.4178 1.0472 11.167-6.3801 3.891-7.7081 17.14-16.141 17.006-10.824-0.15367 6.0577-3.2015 21.287-4.9436 24.702-2.3902 4.6853-2.1211 5.5187 1.812 5.6109 10.272 0.24093 10.25 0.23371 9.5429 3.1875-2.3749 9.9186-9.6588 20.543-14.977 21.847-6.2639 1.535-5.3678 11.933 1.8378 21.325 7.517 9.7984 7.7599 10.27 7.7599 15.066 0 5.0293-4.0968 14.592-8.0858 18.874-2.0587 2.2097-2.6983 2.2998-14.224 2.0022-12.068-0.31157-12.068-0.31157-13.874 2.6622-2.3128 3.8085-2.2765 4.9326 0.27091 8.3782 1.1481 1.5528 1.9356 3.8925 1.75 5.1993-0.40663 2.8636-3.8341 3.9511-3.844 1.2197-0.004-1.0028-0.90066-3.1733-1.9934-4.8233-2.5693-3.8796-2.5693-9.5065 0-12.773 2.4538-3.1196 2.4587-2.8353-0.12401-7.2127-4.3017-7.2909-9.3904 1.5122-8.6394 14.946 0.55077 9.8525 0.29308 11.54-1.7624 11.54-0.88102 0-1.4743-1.4951-1.6864-4.25-0.32721-4.25-0.32721-4.25-2.1661 0-1.9498 4.5063-5.3756 6.1259-4.2305 2 1.8883-6.8037 1.9212-6.5324-0.73104-6.0254-2.0692 0.39556-3.101-0.35009-6.0525-4.3739-4.5509-6.2043-4.73-8.8309-0.31001-4.5469 5.132 4.9742 6.6208 4.3703 13.052-5.294 7.5328-11.319 7.2028-12.537-4.5815-16.907-5.4971-2.0384-11.824-8.62-13.483-14.026-1.5975-5.205 0.13036-5.2873 3.6485-0.17388 3.7306 5.4222 7.0265 8.1063 11.879 9.6737 2.0281 0.65513 5.8809 2.7851 8.5616 4.7332 2.6808 1.9481 5.8198 3.6117 6.9756 3.6969 1.5233 0.11223 2.287 1.0616 2.7756 3.4507 1.5146 7.4056 13.728 11.554 25.395 8.6264 5.2048-1.3063 2.6192-2.8863-3.7698-2.3036-13.99 1.2759-19.503-1.9802-18.236-10.77 0.39738-2.7558 0.78178-7.373 0.85422-10.261 0.14024-5.59 0.89048-6.5035 2.6465-3.2224 0.69956 1.3072 0.84386 5.0009 0.40612 10.396-0.83577 10.3-0.50893 10.577 12.513 10.577 10.353 0 12.441-1.153 13.638-7.531 1.105-5.8904-1.064-7.3096-7.8856-5.1593-2.9491 0.92962-6.5758 1.6902-8.0593 1.6902-2.3568 0-2.5666 0.24413-1.6621 1.9343 1.5068 2.8155 1.3906 5.8212-0.16482 4.2657-0.66-0.66-2.235-1.2-3.5-1.2-2.9671 0-3.1638-3.5911-0.24735-4.5167 1.6072-0.5101 1.8055-0.94926 0.91391-2.0236-1.596-1.923-0.21925-3.6516 2.3676-2.9726 2.1542 0.56538 2.1538 0.55959-0.0842-1.0813-4.3704-3.2044-2.996-6.4058 2.75-6.4058 3.7778 0 5 0.36667 5 1.5 0 0.825 0.675 1.5 1.5 1.5 2.3852 0 1.7444 1.7968-1.25 3.5046-2.6537 1.5136-2.6625 1.545-0.25 0.8984 7.5347-2.0195 7.4743-1.9018 3.5855-6.9948-5.9647-7.8117-7.8894-14.432-7.1192-24.488 1.0979-14.334 1.4106-13.984-12.329-13.798-6.4004 0.0865-13.404-0.32603-15.564-0.91676-3.0543-0.83548-4.5188-0.76769-6.5936 0.30524-7.6119 3.9363-15.732 2.9559-23.288-2.8118-6.5686-5.0139-13.53-7.1049-21.041-6.3199-8.2728 0.86467-8.4164 1.2907-3.285 9.7428 7.0352 11.588 11.768 13.964 22.883 11.491 4.6359-1.0317 5.0833 0.64721 0.76723 2.8792-4.9969 2.584-11.235 2.9739-15.465 0.96671-6.2829-2.9814-7.9 3.0255-8.2218 30.542-0.48537 41.495-0.62629 44-2.4756 44-1.3632 0-1.8108-1.3823-2.348-7.25zm99.834-78.013c7.3881-9.8704 5.2721-17.303-3.3413-11.737-1.1666 0.75393-0.88185 0.97278 1.2814 0.98469 3.5946 0.0198 4.424 2.3104 2.0904 5.773-1.8145 2.6924-1.8542 2.7013-2.1795 0.49228-0.34385-2.3347-2.5815-2.9227-5.0864-1.3366-1.3276 0.84068-0.99171 7.8443 0.49134 10.244 0.80508 1.3026 4.0543-0.82721 6.7441-4.4208zm-47.983-9.6191c2.954-2.4516 1.7483-15.117-1.439-15.117-0.5824 0-0.78422 1.3762-0.47663 3.25 0.3009 1.8331-0.0799 4.5579-0.87347 6.25-1.407 3-1.407 3-1.4882-0.10078-0.19446-7.4241-4.0616-12.748-4.1032-5.6492-0.0121 2.0625-0.91208 5.7116-2 8.1092s-1.978 4.4433-1.978 4.546c0 0.91458 11.098-0.24186 12.359-1.2878zm20.316-0.70133c2.3063-2.3064 2.52-3.1233 1.9891-7.6059-0.87229-7.3651-2.9993-9.5098-3.6958-3.7266-0.53188 4.4163-0.53188 4.4163-2.011-0.50398-1.8906-6.2894-4.5486-7.6797-3.6236-1.8954 0.34742 2.1727 0.18873 5.4948-0.35265 7.3824-0.65331 2.278-0.64746 3.5444 0.0174 3.7661 0.55095 0.18365 1.0017 1.4214 1.0017 2.7506 0 3.291 3.2993 3.2083 6.6748-0.16723zm12.391 0.54872c1.2049-0.64483 1.9343-2.0903 1.9343-3.8333 0-3.9281-1.126-4.6082-3.1895-1.9265-1.766 2.295-1.766 2.295-1.7883-1.8325-0.021-3.9021-1.9287-7.1326-3.3642-5.6971-0.36189 0.3619-0.65799 3.733-0.65799 7.4913 0 7.3644 1.6339 8.7052 7.0657 5.7982zm-47.52-2.4194c4.3401-4.3401 3.1094-8.3579-3.8267-12.493-2.0797-1.2398-5.5779-4.8999-7.7737-8.1335-5.024-7.3981-13.945-13.736-13.945-9.9064 0 9.1002 7.5154 22.956 15.503 28.582 7.1944 5.0673 6.9699 5.0237 10.043 1.9509zm22.326 0.10924c3.0137-3.6313 1.9671-13.735-1.5631-15.09-2.2349-0.85762-2.215-0.96023-1.5878 8.1906 0.56705 8.273 1.0795 9.3951 3.1509 6.8992zm36.275-10.663c3.1493-6.4 4.9812-20.992 2.6353-20.992-2.0716 0-6.5944 4.7112-8.9195 9.291-1.1753 2.3149-2.9718 5.2782-3.9924 6.5849-1.8368 2.3519-1.8253 2.4105 1.1374 5.7848 1.6462 1.8748 2.993 3.8762 2.993 4.4474 0 2.8595 3.7626-0.27271 6.1462-5.1164zm-86.157 99.258c-0.006-4.8125-0.28993-10.438-0.63084-12.5-0.75693-4.5794 0.92546-5.036 3.0953-0.84003 1.9693 3.8082 1.0554 22.09-1.1043 22.09-1.0286 0-1.3518-2.0791-1.3602-8.75zm-0.51264-34.724c-0.70701-9.4302-0.36699-12.526 1.3758-12.526 1.3097 0 2.4174 12.02 1.6063 17.429-1.0836 7.2256-2.2118 5.3707-2.9821-4.9027zm82.524 8.2721c0-2.4347 2.5466-5.0321 4.5546-4.6454 2.516 0.48453 3.052 3.4425 0.74381 4.1045-0.98913 0.28371-2.5859 0.84004-3.5484 1.2363-1.1819 0.48657-1.75 0.26081-1.75-0.69541zm-13.308-31.548c-0.23422-0.4125-1.2241-3.225-2.1997-6.25-0.97562-3.025-2.6105-6.6945-3.6332-8.1544-1.0226-1.4599-1.8593-2.9224-1.8593-3.25 0-1.0514 3.8576-0.635 4.5538 0.4915 0.48382 0.78284 0.97617 0.78284 1.759 0 2.5538-2.5538 3.1871-0.8819 3.1871 8.4145 0 8.5019-0.51971 11.017-1.8078 8.7484zm-29.236-1.3153c-3.2119-0.93386-7.9533-6.3219-6.9672-7.9174 2.083-3.3704 13.752-1.0772 17.478 3.4348 3.0661 3.7128-3.5112 6.5178-10.511 4.4826zm11.936-5.2429c-2.3875-3.2498-4.5735-4.8051-9.4325-6.711-6.9519-2.7268-9.6009-5.7198-3.9672-4.4824 10.738 2.3585 13.415 3.8433 16.231 9.0016 4.3454 7.9603 2.4717 9.4106-2.8316 2.1918zm-35.392-12.005c0-1.8256-4.928-6.3438-8.3151-7.6235-4.6382-1.7524-5.9808-1.3917-5.4356 1.4602 0.66066 3.456-1.1808 4.2789-3.4113 1.5245-2.4055-2.9707-2.3828-6.7407 0.0453-7.5113 6.9223-2.1971 22.676 6.956 20.725 12.041-0.68609 1.7879-3.6084 1.8762-3.6084 0.10895z\"\r\n          fill=\"#472115\"\r\n      />\r\n    </g\r\n    >\r\n  </g\r\n  >\r\n  <metadata\r\n    >\r\n    <rdf:RDF\r\n      >\r\n      <cc:Work\r\n        >\r\n        <dc:format\r\n          >image/svg+xml</dc:format\r\n        >\r\n        <dc:type\r\n            rdf:resource=\"http://purl.org/dc/dcmitype/StillImage\"\r\n        />\r\n        <cc:license\r\n            rdf:resource=\"http://creativecommons.org/licenses/publicdomain/\"\r\n        />\r\n        <dc:publisher\r\n          >\r\n          <cc:Agent\r\n              rdf:about=\"http://openclipart.org/\"\r\n            >\r\n            <dc:title\r\n              >Openclipart</dc:title\r\n            >\r\n          </cc:Agent\r\n          >\r\n        </dc:publisher\r\n        >\r\n        <dc:title\r\n          >Red bull head 2</dc:title\r\n        >\r\n        <dc:date\r\n          >2013-05-01T03:08:18</dc:date\r\n        >\r\n        <dc:description\r\n          >This bull image has been used in &lt;a href=\"http://en.globalquiz.org/animals-quiz/\"&gt;animals quiz&lt;/a&gt;</dc:description\r\n        >\r\n        <dc:source\r\n          >https://openclipart.org/detail/177587/red-bull-head-2-by-animals-177587</dc:source\r\n        >\r\n        <dc:creator\r\n          >\r\n          <cc:Agent\r\n            >\r\n            <dc:title\r\n              >animals</dc:title\r\n            >\r\n          </cc:Agent\r\n          >\r\n        </dc:creator\r\n        >\r\n        <dc:subject\r\n          >\r\n          <rdf:Bag\r\n            >\r\n            <rdf:li\r\n              >animal</rdf:li\r\n            >\r\n            <rdf:li\r\n              >bull</rdf:li\r\n            >\r\n          </rdf:Bag\r\n          >\r\n        </dc:subject\r\n        >\r\n      </cc:Work\r\n      >\r\n      <cc:License\r\n          rdf:about=\"http://creativecommons.org/licenses/publicdomain/\"\r\n        >\r\n        <cc:permits\r\n            rdf:resource=\"http://creativecommons.org/ns#Reproduction\"\r\n        />\r\n        <cc:permits\r\n            rdf:resource=\"http://creativecommons.org/ns#Distribution\"\r\n        />\r\n        <cc:permits\r\n            rdf:resource=\"http://creativecommons.org/ns#DerivativeWorks\"\r\n        />\r\n      </cc:License\r\n      >\r\n    </rdf:RDF\r\n    >\r\n  </metadata\r\n  >\r\n</svg\r\n>\r\n"
  ],
  "numDeployments": 4,
  "solcInputHash": "4a3864e35400461e37e1ca21f1306a83",
  "bytecode": "0x60806040523480156200001157600080fd5b5060405162003a0c38038062003a0c8339818101604052810190620000379190620005ac565b6040518060400160405280600781526020017f535647204e4654000000000000000000000000000000000000000000000000008152506040518060400160405280600481526020017f534e4654000000000000000000000000000000000000000000000000000000008152508160009081620000b4919062000848565b508060019081620000c6919062000848565b505050620000e9620000dd6200011a60201b60201c565b6200012260201b60201c565b60006007819055506200010281620001e860201b60201c565b6008908162000112919062000848565b505062000ace565b600033905090565b6000600660009054906101000a900473ffffffffffffffffffffffffffffffffffffffff16905081600660006101000a81548173ffffffffffffffffffffffffffffffffffffffff021916908373ffffffffffffffffffffffffffffffffffffffff1602179055508173ffffffffffffffffffffffffffffffffffffffff168173ffffffffffffffffffffffffffffffffffffffff167f8be0079c531659141344cd1fd0a4f28419497f9722a3daafe3b4186f6b6457e060405160405180910390a35050565b606060006040518060400160405280601a81526020017f646174613a696d6167652f7376672b786d6c3b6261736536342c000000000000815250905060006200025d846040516020016200023d919062000971565b6040516020818303038152906040526200028c60201b62000cba1760201c565b90508181604051602001620002749291906200098a565b60405160208183030381529060405292505050919050565b60606000825103620002b05760405180602001604052806000815250905062000414565b6000604051806060016040528060408152602001620039cc6040913990506000600360028551620002e29190620009e1565b620002ee919062000a4b565b6004620002fc919062000a83565b905060006020826200030f9190620009e1565b67ffffffffffffffff8111156200032b576200032a62000448565b5b6040519080825280601f01601f1916602001820160405280156200035e5781602001600182028036833780820191505090505b509050818152600183018586518101602084015b81831015620003cf576003830192508251603f8160121c168501518253600182019150603f81600c1c168501518253600182019150603f8160061c168501518253600182019150603f811685015182536001820191505062000372565b600389510660018114620003ec5760028114620003fd5762000408565b613d3d60f01b600283035262000408565b603d60f81b60018303525b50505050508093505050505b919050565b6000604051905090565b600080fd5b600080fd5b600080fd5b600080fd5b6000601f19601f8301169050919050565b7f4e487b7100000000000000000000000000000000000000000000000000000000600052604160045260246000fd5b620004828262000437565b810181811067ffffffffffffffff82111715620004a457620004a362000448565b5b80604052505050565b6000620004b962000419565b9050620004c7828262000477565b919050565b600067ffffffffffffffff821115620004ea57620004e962000448565b5b620004f58262000437565b9050602081019050919050565b60005b838110156200052257808201518184015260208101905062000505565b60008484015250505050565b6000620005456200053f84620004cc565b620004ad565b90508281526020810184848401111562000564576200056362000432565b5b6200057184828562000502565b509392505050565b600082601f8301126200059157620005906200042d565b5b8151620005a38482602086016200052e565b91505092915050565b600060208284031215620005c557620005c462000423565b5b600082015167ffffffffffffffff811115620005e657620005e562000428565b5b620005f48482850162000579565b91505092915050565b600081519050919050565b7f4e487b7100000000000000000000000000000000000000000000000000000000600052602260045260246000fd5b600060028204905060018216806200065057607f821691505b60208210810362000666576200066562000608565b5b50919050565b60008190508160005260206000209050919050565b60006020601f8301049050919050565b600082821b905092915050565b600060088302620006d07fffffffffffffffffffffffffffffffffffffffffffffffffffffffffffffffff8262000691565b620006dc868362000691565b95508019841693508086168417925050509392505050565b6000819050919050565b6000819050919050565b600062000729620007236200071d84620006f4565b620006fe565b620006f4565b9050919050565b6000819050919050565b620007458362000708565b6200075d620007548262000730565b8484546200069e565b825550505050565b600090565b6200077462000765565b620007818184846200073a565b505050565b5b81811015620007a9576200079d6000826200076a565b60018101905062000787565b5050565b601f821115620007f857620007c2816200066c565b620007cd8462000681565b81016020851015620007dd578190505b620007f5620007ec8562000681565b83018262000786565b50505b505050565b600082821c905092915050565b60006200081d60001984600802620007fd565b1980831691505092915050565b60006200083883836200080a565b9150826002028217905092915050565b6200085382620005fd565b67ffffffffffffffff8111156200086f576200086e62000448565b5b6200087b825462000637565b62000888828285620007ad565b600060209050601f831160018114620008c05760008415620008ab578287015190505b620008b785826200082a565b86555062000927565b601f198416620008d0866200066c565b60005b82811015620008fa57848901518255600182019150602085019450602081019050620008d3565b868310156200091a578489015162000916601f8916826200080a565b8355505b6001600288020188555050505b505050505050565b600081905092915050565b60006200094782620005fd565b6200095381856200092f565b93506200096581856020860162000502565b80840191505092915050565b60006200097f82846200093a565b915081905092915050565b60006200099882856200093a565b9150620009a682846200093a565b91508190509392505050565b7f4e487b7100000000000000000000000000000000000000000000000000000000600052601160045260246000fd5b6000620009ee82620006f4565b9150620009fb83620006f4565b925082820190508082111562000a165762000a15620009b2565b5b92915050565b7f4e487b7100000000000000000000000000000000000000000000000000000000600052601260045260246000fd5b600062000a5882620006f4565b915062000a6583620006f4565b92508262000a785762000a7762000a1c565b5b828204905092915050565b600062000a9082620006f4565b915062000a9d83620006f4565b925082820262000aad81620006f4565b9150828204841483151762000ac75762000ac6620009b2565b5b5092915050565b612eee8062000ade6000396000f3fe608060405234801561001057600080fd5b506004361061012c5760003560e01c806370a08231116100ad578063b88d4fde11610071578063b88d4fde14610331578063c2229fea1461034d578063c87b56dd14610357578063e985e9c514610387578063f2fde38b146103b75761012c565b806370a082311461029f578063715018a6146102cf5780638da5cb5b146102d957806395d89b41146102f7578063a22cb465146103155761012c565b806330d871c6116100f457806330d871c6146101e757806342842e0e14610217578063489187e8146102335780636352211e146102515780636e02007d146102815761012c565b806301ffc9a71461013157806306fdde0314610161578063081812fc1461017f578063095ea7b3146101af57806323b872dd146101cb575b600080fd5b61014b60048036038101906101469190611cd5565b6103d3565b6040516101589190611d1d565b60405180910390f35b6101696104b5565b6040516101769190611dc8565b60405180910390f35b61019960048036038101906101949190611e20565b610547565b6040516101a69190611e8e565b60405180910390f35b6101c960048036038101906101c49190611ed5565b61058d565b005b6101e560048036038101906101e09190611f15565b6106a4565b005b61020160048036038101906101fc919061209d565b610704565b60405161020e9190611dc8565b60405180910390f35b610231600480360381019061022c9190611f15565b610797565b005b61023b6107b7565b6040516102489190611dc8565b60405180910390f35b61026b60048036038101906102669190611e20565b610849565b6040516102789190611e8e565b60405180910390f35b6102896108cf565b60405161029691906120f5565b60405180910390f35b6102b960048036038101906102b49190612110565b6108d9565b6040516102c691906120f5565b60405180910390f35b6102d7610990565b005b6102e16109a4565b6040516102ee9190611e8e565b60405180910390f35b6102ff6109ce565b60405161030c9190611dc8565b60405180910390f35b61032f600480360381019061032a9190612169565b610a60565b005b61034b6004803603810190610346919061224a565b610a76565b005b610355610ad8565b005b610371600480360381019061036c9190611e20565b610afb565b60405161037e9190611dc8565b60405180910390f35b6103a1600480360381019061039c91906122cd565b610ba3565b6040516103ae9190611d1d565b60405180910390f35b6103d160048036038101906103cc9190612110565b610c37565b005b60007f80ac58cd000000000000000000000000000000000000000000000000000000007bffffffffffffffffffffffffffffffffffffffffffffffffffffffff1916827bffffffffffffffffffffffffffffffffffffffffffffffffffffffff1916148061049e57507f5b5e139f000000000000000000000000000000000000000000000000000000007bffffffffffffffffffffffffffffffffffffffffffffffffffffffff1916827bffffffffffffffffffffffffffffffffffffffffffffffffffffffff1916145b806104ae57506104ad82610e32565b5b9050919050565b6060600080546104c49061233c565b80601f01602080910402602001604051908101604052809291908181526020018280546104f09061233c565b801561053d5780601f106105125761010080835404028352916020019161053d565b820191906000526020600020905b81548152906001019060200180831161052057829003601f168201915b5050505050905090565b600061055282610e9c565b6004600083815260200190815260200160002060009054906101000a900473ffffffffffffffffffffffffffffffffffffffff169050919050565b600061059882610849565b90508073ffffffffffffffffffffffffffffffffffffffff168373ffffffffffffffffffffffffffffffffffffffff1603610608576040517f08c379a00000000000000000000000000000000000000000000000000000000081526004016105ff906123df565b60405180910390fd5b8073ffffffffffffffffffffffffffffffffffffffff16610627610ee7565b73ffffffffffffffffffffffffffffffffffffffff161480610656575061065581610650610ee7565b610ba3565b5b610695576040517f08c379a000000000000000000000000000000000000000000000000000000000815260040161068c90612471565b60405180910390fd5b61069f8383610eef565b505050565b6106b56106af610ee7565b82610fa8565b6106f4576040517f08c379a00000000000000000000000000000000000000000000000000000000081526004016106eb90612503565b60405180910390fd5b6106ff83838361103d565b505050565b606060006040518060400160405280601a81526020017f646174613a696d6167652f7376672b786d6c3b6261736536342c0000000000008152509050600061076a84604051602001610756919061255f565b604051602081830303815290604052610cba565b9050818160405160200161077f929190612576565b60405160208183030381529060405292505050919050565b6107b283838360405180602001604052806000815250610a76565b505050565b6060600880546107c69061233c565b80601f01602080910402602001604051908101604052809291908181526020018280546107f29061233c565b801561083f5780601f106108145761010080835404028352916020019161083f565b820191906000526020600020905b81548152906001019060200180831161082257829003601f168201915b5050505050905090565b60008061085583611336565b9050600073ffffffffffffffffffffffffffffffffffffffff168173ffffffffffffffffffffffffffffffffffffffff16036108c6576040517f08c379a00000000000000000000000000000000000000000000000000000000081526004016108bd906125e6565b60405180910390fd5b80915050919050565b6000600754905090565b60008073ffffffffffffffffffffffffffffffffffffffff168273ffffffffffffffffffffffffffffffffffffffff1603610949576040517f08c379a000000000000000000000000000000000000000000000000000000000815260040161094090612678565b60405180910390fd5b600360008373ffffffffffffffffffffffffffffffffffffffff1673ffffffffffffffffffffffffffffffffffffffff168152602001908152602001600020549050919050565b610998611373565b6109a260006113f1565b565b6000600660009054906101000a900473ffffffffffffffffffffffffffffffffffffffff16905090565b6060600180546109dd9061233c565b80601f0160208091040260200160405190810160405280929190818152602001828054610a099061233c565b8015610a565780601f10610a2b57610100808354040283529160200191610a56565b820191906000526020600020905b815481529060010190602001808311610a3957829003601f168201915b5050505050905090565b610a72610a6b610ee7565b83836114b7565b5050565b610a87610a81610ee7565b83610fa8565b610ac6576040517f08c379a0000000000000000000000000000000000000000000000000000000008152600401610abd90612503565b60405180910390fd5b610ad284848484611623565b50505050565b610ae43360075461167f565b6001600754610af391906126c7565b600781905550565b6060610b068261169d565b610b3c576040517f6df5edae00000000000000000000000000000000000000000000000000000000815260040160405180910390fd5b610b446116de565b610b7c610b4f6104b5565b610b576107b7565b604051602001610b68929190612877565b604051602081830303815290604052610cba565b604051602001610b8d929190612576565b6040516020818303038152906040529050919050565b6000600560008473ffffffffffffffffffffffffffffffffffffffff1673ffffffffffffffffffffffffffffffffffffffff16815260200190815260200160002060008373ffffffffffffffffffffffffffffffffffffffff1673ffffffffffffffffffffffffffffffffffffffff16815260200190815260200160002060009054906101000a900460ff16905092915050565b610c3f611373565b600073ffffffffffffffffffffffffffffffffffffffff168173ffffffffffffffffffffffffffffffffffffffff1603610cae576040517f08c379a0000000000000000000000000000000000000000000000000000000008152600401610ca590612939565b60405180910390fd5b610cb7816113f1565b50565b60606000825103610cdc57604051806020016040528060008152509050610e2d565b6000604051806060016040528060408152602001612e796040913990506000600360028551610d0b91906126c7565b610d159190612988565b6004610d2191906129b9565b90506000602082610d3291906126c7565b67ffffffffffffffff811115610d4b57610d4a611f72565b5b6040519080825280601f01601f191660200182016040528015610d7d5781602001600182028036833780820191505090505b509050818152600183018586518101602084015b81831015610dec576003830192508251603f8160121c168501518253600182019150603f81600c1c168501518253600182019150603f8160061c168501518253600182019150603f8116850151825360018201915050610d91565b600389510660018114610e065760028114610e1657610e21565b613d3d60f01b6002830352610e21565b603d60f81b60018303525b50505050508093505050505b919050565b60007f01ffc9a7000000000000000000000000000000000000000000000000000000007bffffffffffffffffffffffffffffffffffffffffffffffffffffffff1916827bffffffffffffffffffffffffffffffffffffffffffffffffffffffff1916149050919050565b610ea58161169d565b610ee4576040517f08c379a0000000000000000000000000000000000000000000000000000000008152600401610edb906125e6565b60405180910390fd5b50565b600033905090565b816004600083815260200190815260200160002060006101000a81548173ffffffffffffffffffffffffffffffffffffffff021916908373ffffffffffffffffffffffffffffffffffffffff160217905550808273ffffffffffffffffffffffffffffffffffffffff16610f6283610849565b73ffffffffffffffffffffffffffffffffffffffff167f8c5be1e5ebec7d5bd14f71427d1e84f3dd0314c0f7b2291e5b200ac8c7c3b92560405160405180910390a45050565b600080610fb483610849565b90508073ffffffffffffffffffffffffffffffffffffffff168473ffffffffffffffffffffffffffffffffffffffff161480610ff65750610ff58185610ba3565b5b8061103457508373ffffffffffffffffffffffffffffffffffffffff1661101c84610547565b73ffffffffffffffffffffffffffffffffffffffff16145b91505092915050565b8273ffffffffffffffffffffffffffffffffffffffff1661105d82610849565b73ffffffffffffffffffffffffffffffffffffffff16146110b3576040517f08c379a00000000000000000000000000000000000000000000000000000000081526004016110aa90612a6d565b60405180910390fd5b600073ffffffffffffffffffffffffffffffffffffffff168273ffffffffffffffffffffffffffffffffffffffff1603611122576040517f08c379a000000000000000000000000000000000000000000000000000000000815260040161111990612aff565b60405180910390fd5b61112f838383600161171b565b8273ffffffffffffffffffffffffffffffffffffffff1661114f82610849565b73ffffffffffffffffffffffffffffffffffffffff16146111a5576040517f08c379a000000000000000000000000000000000000000000000000000000000815260040161119c90612a6d565b60405180910390fd5b6004600082815260200190815260200160002060006101000a81549073ffffffffffffffffffffffffffffffffffffffff02191690556001600360008573ffffffffffffffffffffffffffffffffffffffff1673ffffffffffffffffffffffffffffffffffffffff168152602001908152602001600020600082825403925050819055506001600360008473ffffffffffffffffffffffffffffffffffffffff1673ffffffffffffffffffffffffffffffffffffffff16815260200190815260200160002060008282540192505081905550816002600083815260200190815260200160002060006101000a81548173ffffffffffffffffffffffffffffffffffffffff021916908373ffffffffffffffffffffffffffffffffffffffff160217905550808273ffffffffffffffffffffffffffffffffffffffff168473ffffffffffffffffffffffffffffffffffffffff167fddf252ad1be2c89b69c2b068fc378daa952ba7f163c4a11628f55a4df523b3ef60405160405180910390a46113318383836001611841565b505050565b60006002600083815260200190815260200160002060009054906101000a900473ffffffffffffffffffffffffffffffffffffffff169050919050565b61137b610ee7565b73ffffffffffffffffffffffffffffffffffffffff166113996109a4565b73ffffffffffffffffffffffffffffffffffffffff16146113ef576040517f08c379a00000000000000000000000000000000000000000000000000000000081526004016113e690612b6b565b60405180910390fd5b565b6000600660009054906101000a900473ffffffffffffffffffffffffffffffffffffffff16905081600660006101000a81548173ffffffffffffffffffffffffffffffffffffffff021916908373ffffffffffffffffffffffffffffffffffffffff1602179055508173ffffffffffffffffffffffffffffffffffffffff168173ffffffffffffffffffffffffffffffffffffffff167f8be0079c531659141344cd1fd0a4f28419497f9722a3daafe3b4186f6b6457e060405160405180910390a35050565b8173ffffffffffffffffffffffffffffffffffffffff168373ffffffffffffffffffffffffffffffffffffffff1603611525576040517f08c379a000000000000000000000000000000000000000000000000000000000815260040161151c90612bd7565b60405180910390fd5b80600560008573ffffffffffffffffffffffffffffffffffffffff1673ffffffffffffffffffffffffffffffffffffffff16815260200190815260200160002060008473ffffffffffffffffffffffffffffffffffffffff1673ffffffffffffffffffffffffffffffffffffffff16815260200190815260200160002060006101000a81548160ff0219169083151502179055508173ffffffffffffffffffffffffffffffffffffffff168373ffffffffffffffffffffffffffffffffffffffff167f17307eab39ab6107e8899845ad3d59bd9653f200f220920489ca2b5937696c31836040516116169190611d1d565b60405180910390a3505050565b61162e84848461103d565b61163a84848484611847565b611679576040517f08c379a000000000000000000000000000000000000000000000000000000000815260040161167090612c69565b60405180910390fd5b50505050565b6116998282604051806020016040528060008152506119ce565b5050565b60008073ffffffffffffffffffffffffffffffffffffffff166116bf83611336565b73ffffffffffffffffffffffffffffffffffffffff1614159050919050565b60606040518060400160405280601d81526020017f646174613a6170706c69636174696f6e2f6a736f6e3b6261736536342c000000815250905090565b600181111561183b57600073ffffffffffffffffffffffffffffffffffffffff168473ffffffffffffffffffffffffffffffffffffffff16146117af5780600360008673ffffffffffffffffffffffffffffffffffffffff1673ffffffffffffffffffffffffffffffffffffffff16815260200190815260200160002060008282546117a79190612c89565b925050819055505b600073ffffffffffffffffffffffffffffffffffffffff168373ffffffffffffffffffffffffffffffffffffffff161461183a5780600360008573ffffffffffffffffffffffffffffffffffffffff1673ffffffffffffffffffffffffffffffffffffffff168152602001908152602001600020600082825461183291906126c7565b925050819055505b5b50505050565b50505050565b60006118688473ffffffffffffffffffffffffffffffffffffffff16611a29565b156119c1578373ffffffffffffffffffffffffffffffffffffffff1663150b7a02611891610ee7565b8786866040518563ffffffff1660e01b81526004016118b39493929190612d12565b6020604051808303816000875af19250505080156118ef57506040513d601f19601f820116820180604052508101906118ec9190612d73565b60015b611971573d806000811461191f576040519150601f19603f3d011682016040523d82523d6000602084013e611924565b606091505b506000815103611969576040517f08c379a000000000000000000000000000000000000000000000000000000000815260040161196090612c69565b60405180910390fd5b805181602001fd5b63150b7a0260e01b7bffffffffffffffffffffffffffffffffffffffffffffffffffffffff1916817bffffffffffffffffffffffffffffffffffffffffffffffffffffffff1916149150506119c6565b600190505b949350505050565b6119d88383611a4c565b6119e56000848484611847565b611a24576040517f08c379a0000000000000000000000000000000000000000000000000000000008152600401611a1b90612c69565b60405180910390fd5b505050565b6000808273ffffffffffffffffffffffffffffffffffffffff163b119050919050565b600073ffffffffffffffffffffffffffffffffffffffff168273ffffffffffffffffffffffffffffffffffffffff1603611abb576040517f08c379a0000000000000000000000000000000000000000000000000000000008152600401611ab290612dec565b60405180910390fd5b611ac48161169d565b15611b04576040517f08c379a0000000000000000000000000000000000000000000000000000000008152600401611afb90612e58565b60405180910390fd5b611b1260008383600161171b565b611b1b8161169d565b15611b5b576040517f08c379a0000000000000000000000000000000000000000000000000000000008152600401611b5290612e58565b60405180910390fd5b6001600360008473ffffffffffffffffffffffffffffffffffffffff1673ffffffffffffffffffffffffffffffffffffffff16815260200190815260200160002060008282540192505081905550816002600083815260200190815260200160002060006101000a81548173ffffffffffffffffffffffffffffffffffffffff021916908373ffffffffffffffffffffffffffffffffffffffff160217905550808273ffffffffffffffffffffffffffffffffffffffff16600073ffffffffffffffffffffffffffffffffffffffff167fddf252ad1be2c89b69c2b068fc378daa952ba7f163c4a11628f55a4df523b3ef60405160405180910390a4611c65600083836001611841565b5050565b6000604051905090565b600080fd5b600080fd5b60007fffffffff0000000000000000000000000000000000000000000000000000000082169050919050565b611cb281611c7d565b8114611cbd57600080fd5b50565b600081359050611ccf81611ca9565b92915050565b600060208284031215611ceb57611cea611c73565b5b6000611cf984828501611cc0565b91505092915050565b60008115159050919050565b611d1781611d02565b82525050565b6000602082019050611d326000830184611d0e565b92915050565b600081519050919050565b600082825260208201905092915050565b60005b83811015611d72578082015181840152602081019050611d57565b60008484015250505050565b6000601f19601f8301169050919050565b6000611d9a82611d38565b611da48185611d43565b9350611db4818560208601611d54565b611dbd81611d7e565b840191505092915050565b60006020820190508181036000830152611de28184611d8f565b905092915050565b6000819050919050565b611dfd81611dea565b8114611e0857600080fd5b50565b600081359050611e1a81611df4565b92915050565b600060208284031215611e3657611e35611c73565b5b6000611e4484828501611e0b565b91505092915050565b600073ffffffffffffffffffffffffffffffffffffffff82169050919050565b6000611e7882611e4d565b9050919050565b611e8881611e6d565b82525050565b6000602082019050611ea36000830184611e7f565b92915050565b611eb281611e6d565b8114611ebd57600080fd5b50565b600081359050611ecf81611ea9565b92915050565b60008060408385031215611eec57611eeb611c73565b5b6000611efa85828601611ec0565b9250506020611f0b85828601611e0b565b9150509250929050565b600080600060608486031215611f2e57611f2d611c73565b5b6000611f3c86828701611ec0565b9350506020611f4d86828701611ec0565b9250506040611f5e86828701611e0b565b9150509250925092565b600080fd5b600080fd5b7f4e487b7100000000000000000000000000000000000000000000000000000000600052604160045260246000fd5b611faa82611d7e565b810181811067ffffffffffffffff82111715611fc957611fc8611f72565b5b80604052505050565b6000611fdc611c69565b9050611fe88282611fa1565b919050565b600067ffffffffffffffff82111561200857612007611f72565b5b61201182611d7e565b9050602081019050919050565b82818337600083830152505050565b600061204061203b84611fed565b611fd2565b90508281526020810184848401111561205c5761205b611f6d565b5b61206784828561201e565b509392505050565b600082601f83011261208457612083611f68565b5b813561209484826020860161202d565b91505092915050565b6000602082840312156120b3576120b2611c73565b5b600082013567ffffffffffffffff8111156120d1576120d0611c78565b5b6120dd8482850161206f565b91505092915050565b6120ef81611dea565b82525050565b600060208201905061210a60008301846120e6565b92915050565b60006020828403121561212657612125611c73565b5b600061213484828501611ec0565b91505092915050565b61214681611d02565b811461215157600080fd5b50565b6000813590506121638161213d565b92915050565b600080604083850312156121805761217f611c73565b5b600061218e85828601611ec0565b925050602061219f85828601612154565b9150509250929050565b600067ffffffffffffffff8211156121c4576121c3611f72565b5b6121cd82611d7e565b9050602081019050919050565b60006121ed6121e8846121a9565b611fd2565b90508281526020810184848401111561220957612208611f6d565b5b61221484828561201e565b509392505050565b600082601f83011261223157612230611f68565b5b81356122418482602086016121da565b91505092915050565b6000806000806080858703121561226457612263611c73565b5b600061227287828801611ec0565b945050602061228387828801611ec0565b935050604061229487828801611e0b565b925050606085013567ffffffffffffffff8111156122b5576122b4611c78565b5b6122c18782880161221c565b91505092959194509250565b600080604083850312156122e4576122e3611c73565b5b60006122f285828601611ec0565b925050602061230385828601611ec0565b9150509250929050565b7f4e487b7100000000000000000000000000000000000000000000000000000000600052602260045260246000fd5b6000600282049050600182168061235457607f821691505b6020821081036123675761236661230d565b5b50919050565b7f4552433732313a20617070726f76616c20746f2063757272656e74206f776e6560008201527f7200000000000000000000000000000000000000000000000000000000000000602082015250565b60006123c9602183611d43565b91506123d48261236d565b604082019050919050565b600060208201905081810360008301526123f8816123bc565b9050919050565b7f4552433732313a20617070726f76652063616c6c6572206973206e6f7420746f60008201527f6b656e206f776e6572206f7220617070726f76656420666f7220616c6c000000602082015250565b600061245b603d83611d43565b9150612466826123ff565b604082019050919050565b6000602082019050818103600083015261248a8161244e565b9050919050565b7f4552433732313a2063616c6c6572206973206e6f7420746f6b656e206f776e6560008201527f72206f7220617070726f76656400000000000000000000000000000000000000602082015250565b60006124ed602d83611d43565b91506124f882612491565b604082019050919050565b6000602082019050818103600083015261251c816124e0565b9050919050565b600081905092915050565b600061253982611d38565b6125438185612523565b9350612553818560208601611d54565b80840191505092915050565b600061256b828461252e565b915081905092915050565b6000612582828561252e565b915061258e828461252e565b91508190509392505050565b7f4552433732313a20696e76616c696420746f6b656e2049440000000000000000600082015250565b60006125d0601883611d43565b91506125db8261259a565b602082019050919050565b600060208201905081810360008301526125ff816125c3565b9050919050565b7f4552433732313a2061646472657373207a65726f206973206e6f74206120766160008201527f6c6964206f776e65720000000000000000000000000000000000000000000000602082015250565b6000612662602983611d43565b915061266d82612606565b604082019050919050565b6000602082019050818103600083015261269181612655565b9050919050565b7f4e487b7100000000000000000000000000000000000000000000000000000000600052601160045260246000fd5b60006126d282611dea565b91506126dd83611dea565b92508282019050808211156126f5576126f4612698565b5b92915050565b7f7b226e616d65223a220000000000000000000000000000000000000000000000600082015250565b6000612731600983612523565b915061273c826126fb565b600982019050919050565b7f222c20226465736372697074696f6e223a22416e204e46542077697468206f6e60008201527f436861696e204d6574616461746173222c200000000000000000000000000000602082015250565b60006127a3603283612523565b91506127ae82612747565b603282019050919050565b7f2261747472696275746573223a205b7b2274726169745f74797065223a20226160008201527f6c797261222c202276616c7565223a203130307d5d2c2022696d616765223a22602082015250565b6000612815604083612523565b9150612820826127b9565b604082019050919050565b7f227d000000000000000000000000000000000000000000000000000000000000600082015250565b6000612861600283612523565b915061286c8261282b565b600282019050919050565b600061288282612724565b915061288e828561252e565b915061289982612796565b91506128a482612808565b91506128b0828461252e565b91506128bb82612854565b91508190509392505050565b7f4f776e61626c653a206e6577206f776e657220697320746865207a65726f206160008201527f6464726573730000000000000000000000000000000000000000000000000000602082015250565b6000612923602683611d43565b915061292e826128c7565b604082019050919050565b6000602082019050818103600083015261295281612916565b9050919050565b7f4e487b7100000000000000000000000000000000000000000000000000000000600052601260045260246000fd5b600061299382611dea565b915061299e83611dea565b9250826129ae576129ad612959565b5b828204905092915050565b60006129c482611dea565b91506129cf83611dea565b92508282026129dd81611dea565b915082820484148315176129f4576129f3612698565b5b5092915050565b7f4552433732313a207472616e736665722066726f6d20696e636f72726563742060008201527f6f776e6572000000000000000000000000000000000000000000000000000000602082015250565b6000612a57602583611d43565b9150612a62826129fb565b604082019050919050565b60006020820190508181036000830152612a8681612a4a565b9050919050565b7f4552433732313a207472616e7366657220746f20746865207a65726f2061646460008201527f7265737300000000000000000000000000000000000000000000000000000000602082015250565b6000612ae9602483611d43565b9150612af482612a8d565b604082019050919050565b60006020820190508181036000830152612b1881612adc565b9050919050565b7f4f776e61626c653a2063616c6c6572206973206e6f7420746865206f776e6572600082015250565b6000612b55602083611d43565b9150612b6082612b1f565b602082019050919050565b60006020820190508181036000830152612b8481612b48565b9050919050565b7f4552433732313a20617070726f766520746f2063616c6c657200000000000000600082015250565b6000612bc1601983611d43565b9150612bcc82612b8b565b602082019050919050565b60006020820190508181036000830152612bf081612bb4565b9050919050565b7f4552433732313a207472616e7366657220746f206e6f6e20455243373231526560008201527f63656976657220696d706c656d656e7465720000000000000000000000000000602082015250565b6000612c53603283611d43565b9150612c5e82612bf7565b604082019050919050565b60006020820190508181036000830152612c8281612c46565b9050919050565b6000612c9482611dea565b9150612c9f83611dea565b9250828203905081811115612cb757612cb6612698565b5b92915050565b600081519050919050565b600082825260208201905092915050565b6000612ce482612cbd565b612cee8185612cc8565b9350612cfe818560208601611d54565b612d0781611d7e565b840191505092915050565b6000608082019050612d276000830187611e7f565b612d346020830186611e7f565b612d4160408301856120e6565b8181036060830152612d538184612cd9565b905095945050505050565b600081519050612d6d81611ca9565b92915050565b600060208284031215612d8957612d88611c73565b5b6000612d9784828501612d5e565b91505092915050565b7f4552433732313a206d696e7420746f20746865207a65726f2061646472657373600082015250565b6000612dd6602083611d43565b9150612de182612da0565b602082019050919050565b60006020820190508181036000830152612e0581612dc9565b9050919050565b7f4552433732313a20746f6b656e20616c7265616479206d696e74656400000000600082015250565b6000612e42601c83611d43565b9150612e4d82612e0c565b602082019050919050565b60006020820190508181036000830152612e7181612e35565b905091905056fe4142434445464748494a4b4c4d4e4f505152535455565758595a6162636465666768696a6b6c6d6e6f707172737475767778797a303132333435363738392b2fa2646970667358221220967a92046828d46b8122be1ec1c16efbdac1e62784e40acad0a355a10ce5c07d64736f6c634300081100334142434445464748494a4b4c4d4e4f505152535455565758595a6162636465666768696a6b6c6d6e6f707172737475767778797a303132333435363738392b2f",
  "devdoc": {
    "kind": "dev",
    "methods": {
      "approve(address,uint256)": {
        "details": "See {IERC721-approve}."
      },
      "balanceOf(address)": {
        "details": "See {IERC721-balanceOf}."
      },
      "getApproved(uint256)": {
        "details": "See {IERC721-getApproved}."
      },
      "isApprovedForAll(address,address)": {
        "details": "See {IERC721-isApprovedForAll}."
      },
      "name()": {
        "details": "See {IERC721Metadata-name}."
      },
      "owner()": {
        "details": "Returns the address of the current owner."
      },
      "ownerOf(uint256)": {
        "details": "See {IERC721-ownerOf}."
      },
      "renounceOwnership()": {
        "details": "Leaves the contract without owner. It will not be possible to call `onlyOwner` functions anymore. Can only be called by the current owner. NOTE: Renouncing ownership will leave the contract without an owner, thereby removing any functionality that is only available to the owner."
      },
      "safeTransferFrom(address,address,uint256)": {
        "details": "See {IERC721-safeTransferFrom}."
      },
      "safeTransferFrom(address,address,uint256,bytes)": {
        "details": "See {IERC721-safeTransferFrom}."
      },
      "setApprovalForAll(address,bool)": {
        "details": "See {IERC721-setApprovalForAll}."
      },
      "supportsInterface(bytes4)": {
        "details": "See {IERC165-supportsInterface}."
      },
      "symbol()": {
        "details": "See {IERC721Metadata-symbol}."
      },
      "tokenURI(uint256)": {
        "details": "See {IERC721Metadata-tokenURI}."
      },
      "transferFrom(address,address,uint256)": {
        "details": "See {IERC721-transferFrom}."
      },
      "transferOwnership(address)": {
        "details": "Transfers ownership of the contract to a new account (`newOwner`). Can only be called by the current owner."
      }
    },
    "version": 1
  },
  "userdoc": {
    "kind": "user",
    "methods": {},
    "version": 1
  },
  "storageLayout": {
    "storage": [
      {
        "astId": 138,
        "contract": "contracts/NFTIsERC721.sol:SvgNft",
        "label": "_name",
        "offset": 0,
        "slot": "0",
        "type": "t_string_storage"
      },
      {
        "astId": 140,
        "contract": "contracts/NFTIsERC721.sol:SvgNft",
        "label": "_symbol",
        "offset": 0,
        "slot": "1",
        "type": "t_string_storage"
      },
      {
        "astId": 144,
        "contract": "contracts/NFTIsERC721.sol:SvgNft",
        "label": "_owners",
        "offset": 0,
        "slot": "2",
        "type": "t_mapping(t_uint256,t_address)"
      },
      {
        "astId": 148,
        "contract": "contracts/NFTIsERC721.sol:SvgNft",
        "label": "_balances",
        "offset": 0,
        "slot": "3",
        "type": "t_mapping(t_address,t_uint256)"
      },
      {
        "astId": 152,
        "contract": "contracts/NFTIsERC721.sol:SvgNft",
        "label": "_tokenApprovals",
        "offset": 0,
        "slot": "4",
        "type": "t_mapping(t_uint256,t_address)"
      },
      {
        "astId": 158,
        "contract": "contracts/NFTIsERC721.sol:SvgNft",
        "label": "_operatorApprovals",
        "offset": 0,
        "slot": "5",
        "type": "t_mapping(t_address,t_mapping(t_address,t_bool))"
      },
      {
        "astId": 7,
        "contract": "contracts/NFTIsERC721.sol:SvgNft",
        "label": "_owner",
        "offset": 0,
        "slot": "6",
        "type": "t_address"
      },
      {
        "astId": 2774,
        "contract": "contracts/NFTIsERC721.sol:SvgNft",
        "label": "s_tokenCounter",
        "offset": 0,
        "slot": "7",
        "type": "t_uint256"
      },
      {
        "astId": 2776,
        "contract": "contracts/NFTIsERC721.sol:SvgNft",
        "label": "s_imageURI",
        "offset": 0,
        "slot": "8",
        "type": "t_string_storage"
      }
    ],
    "types": {
      "t_address": {
        "encoding": "inplace",
        "label": "address",
        "numberOfBytes": "20"
      },
      "t_bool": {
        "encoding": "inplace",
        "label": "bool",
        "numberOfBytes": "1"
      },
      "t_mapping(t_address,t_bool)": {
        "encoding": "mapping",
        "key": "t_address",
        "label": "mapping(address => bool)",
        "numberOfBytes": "32",
        "value": "t_bool"
      },
      "t_mapping(t_address,t_mapping(t_address,t_bool))": {
        "encoding": "mapping",
        "key": "t_address",
        "label": "mapping(address => mapping(address => bool))",
        "numberOfBytes": "32",
        "value": "t_mapping(t_address,t_bool)"
      },
      "t_mapping(t_address,t_uint256)": {
        "encoding": "mapping",
        "key": "t_address",
        "label": "mapping(address => uint256)",
        "numberOfBytes": "32",
        "value": "t_uint256"
      },
      "t_mapping(t_uint256,t_address)": {
        "encoding": "mapping",
        "key": "t_uint256",
        "label": "mapping(uint256 => address)",
        "numberOfBytes": "32",
        "value": "t_address"
      },
      "t_string_storage": {
        "encoding": "bytes",
        "label": "string",
        "numberOfBytes": "32"
      },
      "t_uint256": {
        "encoding": "inplace",
        "label": "uint256",
        "numberOfBytes": "32"
      }
    }
  }
}